{
  "contractName": "Lottery",
  "abi": [
    {
      "inputs": [
        {
          "internalType": "uint256",
          "name": "_prizeValue",
          "type": "uint256"
        },
        {
          "internalType": "address",
          "name": "_manager",
          "type": "address"
        }
      ],
      "stateMutability": "nonpayable",
      "type": "constructor"
    },
    {
      "anonymous": false,
      "inputs": [
        {
          "indexed": false,
          "internalType": "address",
          "name": "playerAddress",
          "type": "address"
        }
      ],
      "name": "PlayerParticipated",
      "type": "event"
    },
    {
      "inputs": [
        {
          "internalType": "uint256",
          "name": "_amount",
          "type": "uint256"
        },
        {
          "internalType": "address",
          "name": "_particpant",
          "type": "address"
        }
      ],
      "name": "participate",
      "outputs": [],
      "stateMutability": "nonpayable",
      "type": "function"
    },
    {
      "inputs": [],
      "name": "declareWinner",
      "outputs": [
        {
          "internalType": "address",
          "name": "",
          "type": "address"
        }
      ],
      "stateMutability": "nonpayable",
      "type": "function"
    },
    {
      "inputs": [],
      "name": "getEntriesRequired",
      "outputs": [
        {
          "internalType": "uint256",
          "name": "",
          "type": "uint256"
        }
      ],
      "stateMutability": "view",
      "type": "function"
    },
    {
      "inputs": [],
      "name": "getPrizeValue",
      "outputs": [
        {
          "internalType": "uint256",
          "name": "",
          "type": "uint256"
        }
      ],
      "stateMutability": "view",
      "type": "function"
    }
  ],
  "bytecode": "0x60806040523480156200001157600080fd5b5060405162000bf338038062000bf3833981810160405281019062000037919062000110565b8160008190555062000060670de0b6b3a764000083620000ca60201b620004341790919060201c565b60028190555080600160006101000a81548173ffffffffffffffffffffffffffffffffffffffff021916908373ffffffffffffffffffffffffffffffffffffffff1602179055506001600460006101000a81548160ff02191690831515021790555050506200022a565b60008183620000da919062000151565b905092915050565b600081519050620000f381620001f6565b92915050565b6000815190506200010a8162000210565b92915050565b600080604083850312156200012457600080fd5b60006200013485828601620000f9565b92505060206200014785828601620000e2565b9150509250929050565b60006200015e82620001bd565b91506200016b83620001bd565b9250826200017e576200017d620001c7565b5b828204905092915050565b600062000196826200019d565b9050919050565b600073ffffffffffffffffffffffffffffffffffffffff82169050919050565b6000819050919050565b7f4e487b7100000000000000000000000000000000000000000000000000000000600052601260045260246000fd5b620002018162000189565b81146200020d57600080fd5b50565b6200021b81620001bd565b81146200022757600080fd5b50565b6109b9806200023a6000396000f3fe608060405234801561001057600080fd5b506004361061004c5760003560e01c806313b186401461005157806314034bd21461006d5780632ba976381461008b578063b8760e6b146100a9575b600080fd5b61006b600480360381019061006691906104d7565b6100c7565b005b6100756102a2565b60405161008291906106eb565b60405180910390f35b610093610421565b6040516100a091906107a6565b60405180910390f35b6100b161042b565b6040516100be91906107a6565b60405180910390f35b6000600254141561010d576040517f08c379a000000000000000000000000000000000000000000000000000000000815260040161010490610726565b60405180910390fd5b600460009054906101000a900460ff1661015c576040517f08c379a000000000000000000000000000000000000000000000000000000000815260040161015390610746565b60405180910390fd5b6000610179670de0b6b3a76400008461043490919063ffffffff16565b90508060025410156101c0576040517f08c379a00000000000000000000000000000000000000000000000000000000081526004016101b790610766565b60405180910390fd5b60005b8181101561024a578260056000600354815260200190815260200160002060006101000a81548173ffffffffffffffffffffffffffffffffffffffff021916908373ffffffffffffffffffffffffffffffffffffffff1602179055506003600081548092919061023290610873565b9190505550808061024290610873565b9150506101c3565b506102608160025461044a90919063ffffffff16565b6002819055507f609ccaad0d5a048d24b2ea393937b393e3ad528ec64eca22004023379ea26f428260405161029591906106eb565b60405180910390a1505050565b6000600160009054906101000a900473ffffffffffffffffffffffffffffffffffffffff1673ffffffffffffffffffffffffffffffffffffffff163373ffffffffffffffffffffffffffffffffffffffff16146102fe57600080fd5b600460009054906101000a900460ff1661034d576040517f08c379a000000000000000000000000000000000000000000000000000000000815260040161034490610786565b60405180910390fd5b600060025414610392576040517f08c379a000000000000000000000000000000000000000000000000000000000815260040161038990610706565b60405180910390fd5b6000600460006101000a81548160ff02191690831515021790555060006103e56103cf670de0b6b3a764000060005461043490919063ffffffff16565b6103d7610460565b61049790919063ffffffff16565b90506005600082815260200190815260200160002060009054906101000a900473ffffffffffffffffffffffffffffffffffffffff1691505090565b6000600254905090565b60008054905090565b6000818361044291906107d2565b905092915050565b600081836104589190610803565b905092915050565b60004442600054604051602001610479939291906106ae565b6040516020818303038152906040528051906020012060001c905090565b600081836104a591906108c6565b905092915050565b6000813590506104bc81610955565b92915050565b6000813590506104d18161096c565b92915050565b600080604083850312156104ea57600080fd5b60006104f8858286016104c2565b9250506020610509858286016104ad565b9150509250929050565b61051c81610837565b82525050565b600061052f6017836107c1565b91507f636f6e74657874206973206e6f742066756c6c207965740000000000000000006000830152602082019050919050565b600061056f600f836107c1565b91507f636f6e746578742069732066756c6c00000000000000000000000000000000006000830152602082019050919050565b60006105af601d836107c1565b91507f636f6e74657874206973206e6f742061637469766520616e796d6f72650000006000830152602082019050919050565b60006105ef6032836107c1565b91507f656e74726565206665652073686f756c6420626520736d616c6c65722074686160008301527f6e20656e747269657320726571756972656400000000000000000000000000006020830152604082019050919050565b6000610655601d836107c1565b91507f436f6e74657874206973206e6f742061637469766520616e796d6f72650000006000830152602082019050919050565b61069181610869565b82525050565b6106a86106a382610869565b6108bc565b82525050565b60006106ba8286610697565b6020820191506106ca8285610697565b6020820191506106da8284610697565b602082019150819050949350505050565b60006020820190506107006000830184610513565b92915050565b6000602082019050818103600083015261071f81610522565b9050919050565b6000602082019050818103600083015261073f81610562565b9050919050565b6000602082019050818103600083015261075f816105a2565b9050919050565b6000602082019050818103600083015261077f816105e2565b9050919050565b6000602082019050818103600083015261079f81610648565b9050919050565b60006020820190506107bb6000830184610688565b92915050565b600082825260208201905092915050565b60006107dd82610869565b91506107e883610869565b9250826107f8576107f7610926565b5b828204905092915050565b600061080e82610869565b915061081983610869565b92508282101561082c5761082b6108f7565b5b828203905092915050565b600061084282610849565b9050919050565b600073ffffffffffffffffffffffffffffffffffffffff82169050919050565b6000819050919050565b600061087e82610869565b91507fffffffffffffffffffffffffffffffffffffffffffffffffffffffffffffffff8214156108b1576108b06108f7565b5b600182019050919050565b6000819050919050565b60006108d182610869565b91506108dc83610869565b9250826108ec576108eb610926565b5b828206905092915050565b7f4e487b7100000000000000000000000000000000000000000000000000000000600052601160045260246000fd5b7f4e487b7100000000000000000000000000000000000000000000000000000000600052601260045260246000fd5b61095e81610837565b811461096957600080fd5b50565b61097581610869565b811461098057600080fd5b5056fea2646970667358221220c7f81bae1c731b245dd1d2e91bee896a136a07e0b62ec88c03ba06d126d2840b64736f6c63430008000033",
  "immutableReferences": {},
  "source": "// SPDX-License-Identifier: MIT\r\npragma solidity ^0.8.0;\r\n\r\nimport \"@openzeppelin/contracts/utils/math/SafeMath.sol\";\r\nimport \"@openzeppelin/contracts/token/ERC20/IERC20.sol\";\r\n\r\ncontract Lottery {\r\n    using SafeMath for uint256;\r\n\r\n    uint256 private prizeValue;\r\n    address private manager;\r\n    uint256 private entriesRequired;\r\n    uint256 private currentTicketId;\r\n    bool private isActive;\r\n    mapping(uint256 => address) allParticipants;\r\n\r\n    constructor(uint256 _prizeValue, address _manager) {\r\n        prizeValue = _prizeValue;\r\n        entriesRequired = _prizeValue.div(10**18);\r\n        manager = _manager;\r\n        isActive = true;\r\n    }\r\n\r\n    function participate(uint256 _amount, address _particpant) public {\r\n        require(entriesRequired != 0, \"context is full\");\r\n        require(isActive, \"context is not active anymore\");\r\n\r\n        uint256 _tickets = _amount.div(10**18);\r\n        require(\r\n            entriesRequired >= _tickets,\r\n            \"entree fee should be smaller than entries required\"\r\n        );\r\n        for (uint256 i = 0; i < _tickets; i++) {\r\n            allParticipants[currentTicketId] = _particpant;\r\n            currentTicketId++;\r\n        }\r\n        entriesRequired = entriesRequired.sub(_tickets);\r\n        emit PlayerParticipated(_particpant);\r\n    }\r\n\r\n    function declareWinner() public restricted returns(address){\r\n        require(isActive,\"Context is not active anymore\");\r\n        require(entriesRequired == 0, \"context is not full yet\");\r\n        isActive = false;\r\n        uint256 winnerTicketNo = random().mod(prizeValue.div(10**18));\r\n        return allParticipants[winnerTicketNo];\r\n    }\r\n\r\n    function getEntriesRequired() public view returns(uint256){\r\n        return entriesRequired;\r\n    }\r\n\r\n    function random() private view returns (uint256) {\r\n        return\r\n            uint256(\r\n                keccak256(\r\n                    abi.encodePacked(\r\n                        block.difficulty,\r\n                        block.timestamp,\r\n                        prizeValue\r\n                    )\r\n                )\r\n            );\r\n    }\r\n\r\n    function getPrizeValue() public view returns(uint256) {\r\n        return prizeValue;\r\n    }\r\n    modifier restricted() {\r\n        require(msg.sender == manager);\r\n        _;\r\n    }\r\n    event PlayerParticipated(\r\n        address playerAddress\r\n    );\r\n}\r\n",
  "sourcePath": "D:/LPLottery/contracts/Lottery.sol",
  "compiler": {
    "name": "solc",
    "version": "0.8.0+commit.c7dfd78e.Emscripten.clang"
  },
  "schemaVersion": "3.4.1",
  "updatedAt": "2021-07-22T15:41:19.649Z",
  "devdoc": {
    "kind": "dev",
    "methods": {},
    "version": 1
  },
  "userdoc": {
    "kind": "user",
    "methods": {},
    "version": 1
  }
}