{
  "contractName": "LpLottery",
  "abi": [
    {
      "inputs": [
        {
          "internalType": "address",
          "name": "_routerAddres",
          "type": "address"
        },
        {
          "internalType": "address",
          "name": "_tokenSafeMars",
          "type": "address"
        },
        {
          "internalType": "address",
          "name": "_tokenBUSD",
          "type": "address"
        }
      ],
      "stateMutability": "nonpayable",
      "type": "constructor"
    },
    {
      "anonymous": false,
      "inputs": [
        {
          "indexed": false,
          "internalType": "uint256",
          "name": "lotteryId",
          "type": "uint256"
        }
      ],
      "name": "LotteryCreated",
      "type": "event"
    },
    {
      "inputs": [
        {
          "internalType": "uint256",
          "name": "",
          "type": "uint256"
        }
      ],
      "name": "lotteryStructs",
      "outputs": [
        {
          "internalType": "contract Lottery",
          "name": "",
          "type": "address"
        }
      ],
      "stateMutability": "view",
      "type": "function"
    },
    {
      "inputs": [
        {
          "internalType": "uint256",
          "name": "",
          "type": "uint256"
        }
      ],
      "name": "lotteryWinnerDeclared",
      "outputs": [
        {
          "internalType": "bool",
          "name": "",
          "type": "bool"
        }
      ],
      "stateMutability": "view",
      "type": "function"
    },
    {
      "inputs": [],
      "name": "router",
      "outputs": [
        {
          "internalType": "contract IPancakeRouter02",
          "name": "",
          "type": "address"
        }
      ],
      "stateMutability": "view",
      "type": "function"
    },
    {
      "inputs": [],
      "name": "tokenBUSD",
      "outputs": [
        {
          "internalType": "address",
          "name": "",
          "type": "address"
        }
      ],
      "stateMutability": "view",
      "type": "function"
    },
    {
      "inputs": [],
      "name": "tokenSafeMars",
      "outputs": [
        {
          "internalType": "address",
          "name": "",
          "type": "address"
        }
      ],
      "stateMutability": "view",
      "type": "function"
    },
    {
      "inputs": [
        {
          "internalType": "address",
          "name": "newManger",
          "type": "address"
        }
      ],
      "name": "transferOwnership",
      "outputs": [],
      "stateMutability": "nonpayable",
      "type": "function"
    },
    {
      "inputs": [
        {
          "internalType": "uint256",
          "name": "_prizeValue",
          "type": "uint256"
        }
      ],
      "name": "createContext",
      "outputs": [],
      "stateMutability": "nonpayable",
      "type": "function"
    },
    {
      "inputs": [
        {
          "internalType": "uint256",
          "name": "_lotteryId",
          "type": "uint256"
        }
      ],
      "name": "declareWinner",
      "outputs": [],
      "stateMutability": "nonpayable",
      "type": "function"
    },
    {
      "inputs": [
        {
          "internalType": "uint256",
          "name": "_lotteryId",
          "type": "uint256"
        }
      ],
      "name": "getEntriesRequired",
      "outputs": [
        {
          "internalType": "uint256",
          "name": "",
          "type": "uint256"
        }
      ],
      "stateMutability": "view",
      "type": "function"
    },
    {
      "inputs": [
        {
          "internalType": "uint256",
          "name": "_lotteryId",
          "type": "uint256"
        }
      ],
      "name": "viewWinner",
      "outputs": [
        {
          "internalType": "address",
          "name": "",
          "type": "address"
        }
      ],
      "stateMutability": "view",
      "type": "function"
    },
    {
      "inputs": [
        {
          "internalType": "uint256",
          "name": "_lotteryId",
          "type": "uint256"
        },
        {
          "internalType": "uint256",
          "name": "amount",
          "type": "uint256"
        }
      ],
      "name": "participateInBusd",
      "outputs": [],
      "stateMutability": "nonpayable",
      "type": "function"
    },
    {
      "inputs": [
        {
          "internalType": "uint256",
          "name": "_lotteryId",
          "type": "uint256"
        },
        {
          "internalType": "uint256",
          "name": "amount",
          "type": "uint256"
        }
      ],
      "name": "participateInSafemars",
      "outputs": [],
      "stateMutability": "nonpayable",
      "type": "function"
    },
    {
      "inputs": [
        {
          "internalType": "uint256",
          "name": "_lotteryId",
          "type": "uint256"
        }
      ],
      "name": "exit",
      "outputs": [],
      "stateMutability": "nonpayable",
      "type": "function"
    }
  ],
  "bytecode": "0x60806040523480156200001157600080fd5b5060405162003b2638038062003b26833981810160405281019062000037919062000169565b828282600160008190555082600160006101000a81548173ffffffffffffffffffffffffffffffffffffffff021916908373ffffffffffffffffffffffffffffffffffffffff16021790555081600260006101000a81548173ffffffffffffffffffffffffffffffffffffffff021916908373ffffffffffffffffffffffffffffffffffffffff16021790555080600360006101000a81548173ffffffffffffffffffffffffffffffffffffffff021916908373ffffffffffffffffffffffffffffffffffffffff16021790555050505033600560006101000a81548173ffffffffffffffffffffffffffffffffffffffff021916908373ffffffffffffffffffffffffffffffffffffffff1602179055505050506200020d565b6000815190506200016381620001f3565b92915050565b6000806000606084860312156200017f57600080fd5b60006200018f8682870162000152565b9350506020620001a28682870162000152565b9250506040620001b58682870162000152565b9150509250925092565b6000620001cc82620001d3565b9050919050565b600073ffffffffffffffffffffffffffffffffffffffff82169050919050565b620001fe81620001bf565b81146200020a57600080fd5b50565b613909806200021d6000396000f3fe60806040523480156200001157600080fd5b5060043610620000e15760003560e01c80637211ce8c1162000099578063bcbf42f7116200006f578063bcbf42f71462000260578063e4905e9b1462000282578063f2fde38b14620002a2578063f887ea4014620002c257620000e1565b80637211ce8c14620001ea5780637f8661a1146200020a578063b585fabc146200022a57620000e1565b8062c2943c14620000e65780631f197a731462000106578063213ef7f7146200013c5780635a502b96146200015e57806362494eaa146200019457806368fc66f414620001b4575b600080fd5b620001046004803603810190620000fe91906200233e565b620002e4565b005b6200012460048036038101906200011e91906200233e565b6200065a565b60405162000133919062002671565b60405180910390f35b62000146620006fa565b60405162000155919062002671565b60405180910390f35b6200017c60048036038101906200017691906200233e565b62000720565b6040516200018b919062002830565b60405180910390f35b620001b26004803603810190620001ac91906200233e565b62000740565b005b620001d26004803603810190620001cc91906200233e565b62000881565b604051620001e191906200286a565b60405180910390f35b62000208600480360381019062000202919062002396565b620008b4565b005b6200022860048036038101906200022291906200233e565b62000c50565b005b6200024860048036038101906200024291906200233e565b62000d1a565b6040516200025791906200290f565b60405180910390f35b6200026a62000dd8565b60405162000279919062002671565b60405180910390f35b620002a060048036038101906200029a919062002396565b62000dfe565b005b620002c06004803603810190620002ba9190620022ba565b6200100d565b005b620002cc620010ac565b604051620002db91906200284d565b60405180910390f35b600560009054906101000a900473ffffffffffffffffffffffffffffffffffffffff1673ffffffffffffffffffffffffffffffffffffffff163373ffffffffffffffffffffffffffffffffffffffff16146200033f57600080fd5b6008600082815260200190815260200160002060009054906101000a900460ff1615620003a3576040517f08c379a00000000000000000000000000000000000000000000000000000000081526004016200039a90620028a9565b60405180910390fd5b60016008600083815260200190815260200160002060006101000a81548160ff02191690831515021790555060006007600083815260200190815260200160002060009054906101000a900473ffffffffffffffffffffffffffffffffffffffff1673ffffffffffffffffffffffffffffffffffffffff166314034bd26040518163ffffffff1660e01b8152600401602060405180830381600087803b1580156200044d57600080fd5b505af115801562000462573d6000803e3d6000fd5b505050506040513d601f19601f82011682018060405250810190620004889190620022e6565b9050806009600084815260200190815260200160002060006101000a81548173ffffffffffffffffffffffffffffffffffffffff021916908373ffffffffffffffffffffffffffffffffffffffff16021790555060006200059d6007600085815260200190815260200160002060009054906101000a900473ffffffffffffffffffffffffffffffffffffffff1673ffffffffffffffffffffffffffffffffffffffff1663b8760e6b6040518163ffffffff1660e01b815260040160206040518083038186803b1580156200055c57600080fd5b505afa15801562000571573d6000803e3d6000fd5b505050506040513d601f19601f820116820180604052508101906200059791906200236a565b620010d2565b9050600260009054906101000a900473ffffffffffffffffffffffffffffffffffffffff1673ffffffffffffffffffffffffffffffffffffffff1663a9059cbb83836040518363ffffffff1660e01b8152600401620005fe92919062002803565b602060405180830381600087803b1580156200061957600080fd5b505af11580156200062e573d6000803e3d6000fd5b505050506040513d601f19601f8201168201806040525081019062000654919062002312565b50505050565b60006008600083815260200190815260200160002060009054906101000a900460ff16620006bf576040517f08c379a0000000000000000000000000000000000000000000000000000000008152600401620006b690620028ed565b60405180910390fd5b6009600083815260200190815260200160002060009054906101000a900473ffffffffffffffffffffffffffffffffffffffff169050919050565b600360009054906101000a900473ffffffffffffffffffffffffffffffffffffffff1681565b60086020528060005260406000206000915054906101000a900460ff1681565b600560009054906101000a900473ffffffffffffffffffffffffffffffffffffffff1673ffffffffffffffffffffffffffffffffffffffff163373ffffffffffffffffffffffffffffffffffffffff16146200079b57600080fd5b8030604051620007ab9062002239565b620007b89291906200292c565b604051809103906000f080158015620007d5573d6000803e3d6000fd5b5060076000600654815260200190815260200160002060006101000a81548173ffffffffffffffffffffffffffffffffffffffff021916908373ffffffffffffffffffffffffffffffffffffffff160217905550600660008154809291906200083e9062002be6565b91905055507f9e0023bebcc752baaa41057318405b5a6a8e9c6372b519717cfdf238e5caa7956006546040516200087691906200290f565b60405180910390a150565b60076020528060005260406000206000915054906101000a900473ffffffffffffffffffffffffffffffffffffffff1681565b60026000541415620008fd576040517f08c379a0000000000000000000000000000000000000000000000000000000008152600401620008f490620028cb565b60405180910390fd5b60026000819055506000600260009054906101000a900473ffffffffffffffffffffffffffffffffffffffff1673ffffffffffffffffffffffffffffffffffffffff166370a08231306040518263ffffffff1660e01b815260040162000964919062002671565b60206040518083038186803b1580156200097d57600080fd5b505afa15801562000992573d6000803e3d6000fd5b505050506040513d601f19601f82011682018060405250810190620009b891906200236a565b9050600260009054906101000a900473ffffffffffffffffffffffffffffffffffffffff1673ffffffffffffffffffffffffffffffffffffffff166323b872dd3330856040518463ffffffff1660e01b815260040162000a1b93929190620026bb565b602060405180830381600087803b15801562000a3657600080fd5b505af115801562000a4b573d6000803e3d6000fd5b505050506040513d601f19601f8201168201806040525081019062000a71919062002312565b5062000b3781600260009054906101000a900473ffffffffffffffffffffffffffffffffffffffff1673ffffffffffffffffffffffffffffffffffffffff166370a08231306040518263ffffffff1660e01b815260040162000ad4919062002671565b60206040518083038186803b15801562000aed57600080fd5b505afa15801562000b02573d6000803e3d6000fd5b505050506040513d601f19601f8201168201806040525081019062000b2891906200236a565b6200112c90919063ffffffff16565b9150600062000b66606462000b576004866200114490919063ffffffff16565b6200115c90919063ffffffff16565b9050600062000b758262001174565b90506007600086815260200190815260200160002060009054906101000a900473ffffffffffffffffffffffffffffffffffffffff1673ffffffffffffffffffffffffffffffffffffffff166313b1864082336040518363ffffffff1660e01b815260040162000be79291906200292c565b600060405180830381600087803b15801562000c0257600080fd5b505af115801562000c17573d6000803e3d6000fd5b50505050600062000c3283866200112c90919063ffffffff16565b905062000c408133620011ce565b5050505060016000819055505050565b6002600054141562000c99576040517f08c379a000000000000000000000000000000000000000000000000000000000815260040162000c9090620028cb565b60405180910390fd5b60026000819055506008600082815260200190815260200160002060009054906101000a900460ff1662000d04576040517f08c379a000000000000000000000000000000000000000000000000000000000815260040162000cfb9062002887565b60405180910390fd5b62000d0f336200126a565b600160008190555050565b60006007600083815260200190815260200160002060009054906101000a900473ffffffffffffffffffffffffffffffffffffffff1673ffffffffffffffffffffffffffffffffffffffff16632ba976386040518163ffffffff1660e01b815260040160206040518083038186803b15801562000d9657600080fd5b505afa15801562000dab573d6000803e3d6000fd5b505050506040513d601f19601f8201168201806040525081019062000dd191906200236a565b9050919050565b600260009054906101000a900473ffffffffffffffffffffffffffffffffffffffff1681565b6002600054141562000e47576040517f08c379a000000000000000000000000000000000000000000000000000000000815260040162000e3e90620028cb565b60405180910390fd5b6002600081905550600360009054906101000a900473ffffffffffffffffffffffffffffffffffffffff1673ffffffffffffffffffffffffffffffffffffffff166323b872dd3330846040518463ffffffff1660e01b815260040162000eb093929190620026bb565b602060405180830381600087803b15801562000ecb57600080fd5b505af115801562000ee0573d6000803e3d6000fd5b505050506040513d601f19601f8201168201806040525081019062000f06919062002312565b50600062000f34606462000f256004856200114490919063ffffffff16565b6200115c90919063ffffffff16565b90506007600084815260200190815260200160002060009054906101000a900473ffffffffffffffffffffffffffffffffffffffff1673ffffffffffffffffffffffffffffffffffffffff166313b1864082336040518363ffffffff1660e01b815260040162000fa69291906200292c565b600060405180830381600087803b15801562000fc157600080fd5b505af115801562000fd6573d6000803e3d6000fd5b50505050600062000ff182846200112c90919063ffffffff16565b905062000fff81336200140a565b505060016000819055505050565b600560009054906101000a900473ffffffffffffffffffffffffffffffffffffffff1673ffffffffffffffffffffffffffffffffffffffff163373ffffffffffffffffffffffffffffffffffffffff16146200106857600080fd5b80600560006101000a81548173ffffffffffffffffffffffffffffffffffffffff021916908373ffffffffffffffffffffffffffffffffffffffff16021790555050565b600160009054906101000a900473ffffffffffffffffffffffffffffffffffffffff1681565b600062001125600360009054906101000a900473ffffffffffffffffffffffffffffffffffffffff16600260009054906101000a900473ffffffffffffffffffffffffffffffffffffffff1684620014a6565b9050919050565b600081836200113c919062002afd565b905092915050565b6000818362001154919062002a9c565b905092915050565b600081836200116c919062002a64565b905092915050565b6000620011c7600260009054906101000a900473ffffffffffffffffffffffffffffffffffffffff16600360009054906101000a900473ffffffffffffffffffffffffffffffffffffffff1684620014a6565b9050919050565b6000620011e66002846200115c90919063ffffffff16565b90506000620011ff82856200112c90919063ffffffff16565b9050600062001254600260009054906101000a900473ffffffffffffffffffffffffffffffffffffffff16600360009054906101000a900473ffffffffffffffffffffffffffffffffffffffff1684620014a6565b905062001263838286620018af565b5050505050565b6000600460008373ffffffffffffffffffffffffffffffffffffffff1673ffffffffffffffffffffffffffffffffffffffff1681526020019081526020016000209050600080620012bf836002015462001d35565b91509150600062001316600360009054906101000a900473ffffffffffffffffffffffffffffffffffffffff16600260009054906101000a900473ffffffffffffffffffffffffffffffffffffffff1684620014a6565b90506000846001018190555060008460000181905550600084600201819055506200134b83826200209790919063ffffffff16565b9050600260009054906101000a900473ffffffffffffffffffffffffffffffffffffffff1673ffffffffffffffffffffffffffffffffffffffff1663a9059cbb86836040518363ffffffff1660e01b8152600401620013ac92919062002803565b602060405180830381600087803b158015620013c757600080fd5b505af1158015620013dc573d6000803e3d6000fd5b505050506040513d601f19601f8201168201806040525081019062001402919062002312565b505050505050565b6000620014226002846200115c90919063ffffffff16565b905060006200143b82856200112c90919063ffffffff16565b9050600062001490600360009054906101000a900473ffffffffffffffffffffffffffffffffffffffff16600260009054906101000a900473ffffffffffffffffffffffffffffffffffffffff1684620014a6565b90506200149f818486620018af565b5050505050565b60008373ffffffffffffffffffffffffffffffffffffffff1663095ea7b3600160009054906101000a900473ffffffffffffffffffffffffffffffffffffffff16846040518363ffffffff1660e01b81526004016200150792919062002803565b602060405180830381600087803b1580156200152257600080fd5b505af115801562001537573d6000803e3d6000fd5b505050506040513d601f19601f820116820180604052508101906200155d919062002312565b506000600267ffffffffffffffff811115620015a2577f4e487b7100000000000000000000000000000000000000000000000000000000600052604160045260246000fd5b604051908082528060200260200182016040528015620015d15781602001602082028036833780820191505090505b509050848160008151811062001610577f4e487b7100000000000000000000000000000000000000000000000000000000600052603260045260246000fd5b602002602001019073ffffffffffffffffffffffffffffffffffffffff16908173ffffffffffffffffffffffffffffffffffffffff1681525050838160018151811062001686577f4e487b7100000000000000000000000000000000000000000000000000000000600052603260045260246000fd5b602002602001019073ffffffffffffffffffffffffffffffffffffffff16908173ffffffffffffffffffffffffffffffffffffffff168152505060008473ffffffffffffffffffffffffffffffffffffffff166370a08231306040518263ffffffff1660e01b8152600401620016fd919062002671565b60206040518083038186803b1580156200171657600080fd5b505afa1580156200172b573d6000803e3d6000fd5b505050506040513d601f19601f820116820180604052508101906200175191906200236a565b9050600160009054906101000a900473ffffffffffffffffffffffffffffffffffffffff1673ffffffffffffffffffffffffffffffffffffffff16635c11d7958560008530603c42620017a5919062002a07565b6040518663ffffffff1660e01b8152600401620017c795949392919062002959565b600060405180830381600087803b158015620017e257600080fd5b505af1158015620017f7573d6000803e3d6000fd5b5050505060008573ffffffffffffffffffffffffffffffffffffffff166370a08231306040518263ffffffff1660e01b815260040162001838919062002671565b60206040518083038186803b1580156200185157600080fd5b505afa15801562001866573d6000803e3d6000fd5b505050506040513d601f19601f820116820180604052508101906200188c91906200236a565b9050620018a382826200112c90919063ffffffff16565b93505050509392505050565b600260009054906101000a900473ffffffffffffffffffffffffffffffffffffffff1673ffffffffffffffffffffffffffffffffffffffff1663095ea7b3600160009054906101000a900473ffffffffffffffffffffffffffffffffffffffff16856040518363ffffffff1660e01b81526004016200193092919062002803565b602060405180830381600087803b1580156200194b57600080fd5b505af115801562001960573d6000803e3d6000fd5b505050506040513d601f19601f8201168201806040525081019062001986919062002312565b50600360009054906101000a900473ffffffffffffffffffffffffffffffffffffffff1673ffffffffffffffffffffffffffffffffffffffff1663095ea7b3600160009054906101000a900473ffffffffffffffffffffffffffffffffffffffff16846040518363ffffffff1660e01b815260040162001a0892919062002803565b602060405180830381600087803b15801562001a2357600080fd5b505af115801562001a38573d6000803e3d6000fd5b505050506040513d601f19601f8201168201806040525081019062001a5e919062002312565b50600062001a6b620020af565b73ffffffffffffffffffffffffffffffffffffffff166370a08231306040518263ffffffff1660e01b815260040162001aa5919062002671565b60206040518083038186803b15801562001abe57600080fd5b505afa15801562001ad3573d6000803e3d6000fd5b505050506040513d601f19601f8201168201806040525081019062001af991906200236a565b9050600160009054906101000a900473ffffffffffffffffffffffffffffffffffffffff1673ffffffffffffffffffffffffffffffffffffffff1663e8e33700600260009054906101000a900473ffffffffffffffffffffffffffffffffffffffff16600360009054906101000a900473ffffffffffffffffffffffffffffffffffffffff168787600080306101684262001b95919062002a07565b6040518963ffffffff1660e01b815260040162001bba98979695949392919062002775565b606060405180830381600087803b15801562001bd557600080fd5b505af115801562001bea573d6000803e3d6000fd5b505050506040513d601f19601f8201168201806040525081019062001c10919062002418565b505050600062001c1f620020af565b73ffffffffffffffffffffffffffffffffffffffff166370a08231306040518263ffffffff1660e01b815260040162001c59919062002671565b60206040518083038186803b15801562001c7257600080fd5b505afa15801562001c87573d6000803e3d6000fd5b505050506040513d601f19601f8201168201806040525081019062001cad91906200236a565b9050600062001cc683836200112c90919063ffffffff16565b90506000600460008673ffffffffffffffffffffffffffffffffffffffff1673ffffffffffffffffffffffffffffffffffffffff168152602001908152602001600020905062001d248282600201546200209790919063ffffffff16565b816002018190555050505050505050565b60008062001d42620020af565b73ffffffffffffffffffffffffffffffffffffffff1663095ea7b3600160009054906101000a900473ffffffffffffffffffffffffffffffffffffffff16856040518363ffffffff1660e01b815260040162001da092919062002803565b602060405180830381600087803b15801562001dbb57600080fd5b505af115801562001dd0573d6000803e3d6000fd5b505050506040513d601f19601f8201168201806040525081019062001df6919062002312565b506000600260009054906101000a900473ffffffffffffffffffffffffffffffffffffffff1673ffffffffffffffffffffffffffffffffffffffff166370a08231306040518263ffffffff1660e01b815260040162001e56919062002671565b60206040518083038186803b15801562001e6f57600080fd5b505afa15801562001e84573d6000803e3d6000fd5b505050506040513d601f19601f8201168201806040525081019062001eaa91906200236a565b9050600160009054906101000a900473ffffffffffffffffffffffffffffffffffffffff1673ffffffffffffffffffffffffffffffffffffffff1663baa2abde600260009054906101000a900473ffffffffffffffffffffffffffffffffffffffff16600360009054906101000a900473ffffffffffffffffffffffffffffffffffffffff1687600080306101684262001f45919062002a07565b6040518863ffffffff1660e01b815260040162001f699796959493929190620026f8565b6040805180830381600087803b15801562001f8357600080fd5b505af115801562001f98573d6000803e3d6000fd5b505050506040513d601f19601f8201168201806040525081019062001fbe9190620023d7565b9050809250506000600260009054906101000a900473ffffffffffffffffffffffffffffffffffffffff1673ffffffffffffffffffffffffffffffffffffffff166370a08231306040518263ffffffff1660e01b815260040162002023919062002671565b60206040518083038186803b1580156200203c57600080fd5b505afa15801562002051573d6000803e3d6000fd5b505050506040513d601f19601f820116820180604052508101906200207791906200236a565b90506200208e82826200112c90919063ffffffff16565b93505050915091565b60008183620020a7919062002a07565b905092915050565b600080600160009054906101000a900473ffffffffffffffffffffffffffffffffffffffff1673ffffffffffffffffffffffffffffffffffffffff1663c45a01556040518163ffffffff1660e01b815260040160206040518083038186803b1580156200211b57600080fd5b505afa15801562002130573d6000803e3d6000fd5b505050506040513d601f19601f82011682018060405250810190620021569190620022e6565b905060008173ffffffffffffffffffffffffffffffffffffffff1663e6a43905600260009054906101000a900473ffffffffffffffffffffffffffffffffffffffff16600360009054906101000a900473ffffffffffffffffffffffffffffffffffffffff166040518363ffffffff1660e01b8152600401620021db9291906200268e565b60206040518083038186803b158015620021f457600080fd5b505afa15801562002209573d6000803e3d6000fd5b505050506040513d601f19601f820116820180604052508101906200222f9190620022e6565b9050809250505090565b610bf38062002ce183390190565b600081359050620022588162002c92565b92915050565b6000815190506200226f8162002c92565b92915050565b600081519050620022868162002cac565b92915050565b6000813590506200229d8162002cc6565b92915050565b600081519050620022b48162002cc6565b92915050565b600060208284031215620022cd57600080fd5b6000620022dd8482850162002247565b91505092915050565b600060208284031215620022f957600080fd5b600062002309848285016200225e565b91505092915050565b6000602082840312156200232557600080fd5b6000620023358482850162002275565b91505092915050565b6000602082840312156200235157600080fd5b600062002361848285016200228c565b91505092915050565b6000602082840312156200237d57600080fd5b60006200238d84828501620022a3565b91505092915050565b60008060408385031215620023aa57600080fd5b6000620023ba858286016200228c565b9250506020620023cd858286016200228c565b9150509250929050565b60008060408385031215620023eb57600080fd5b6000620023fb85828601620022a3565b92505060206200240e85828601620022a3565b9150509250929050565b6000806000606084860312156200242e57600080fd5b60006200243e86828701620022a3565b93505060206200245186828701620022a3565b92505060406200246486828701620022a3565b9150509250925092565b60006200247c838362002488565b60208301905092915050565b620024938162002b38565b82525050565b620024a48162002b38565b82525050565b6000620024b782620029cd565b620024c38185620029e5565b9350620024d083620029bd565b8060005b8381101562002507578151620024eb88826200246e565b9750620024f883620029d8565b925050600181019050620024d4565b5085935050505092915050565b6200251f8162002b4c565b82525050565b620025308162002b82565b82525050565b620025418162002baa565b82525050565b620025528162002bd2565b82525050565b600062002567601383620029f6565b91507f57696e6e6572206e6f74206465636c61726564000000000000000000000000006000830152602082019050919050565b6000620025a9601783620029f6565b91507f57696e6e657220616c7265616479206465636c617265640000000000000000006000830152602082019050919050565b6000620025eb601f83620029f6565b91507f5265656e7472616e637947756172643a207265656e7472616e742063616c6c006000830152602082019050919050565b60006200262d601a83620029f6565b91507f57696e6e6572206973206e6f74206465636c61726564207965740000000000006000830152602082019050919050565b6200266b8162002b78565b82525050565b600060208201905062002688600083018462002499565b92915050565b6000604082019050620026a5600083018562002499565b620026b4602083018462002499565b9392505050565b6000606082019050620026d2600083018662002499565b620026e1602083018562002499565b620026f0604083018462002660565b949350505050565b600060e0820190506200270f600083018a62002499565b6200271e602083018962002499565b6200272d604083018862002660565b6200273c606083018762002547565b6200274b608083018662002547565b6200275a60a083018562002499565b6200276960c083018462002660565b98975050505050505050565b6000610100820190506200278d600083018b62002499565b6200279c602083018a62002499565b620027ab604083018962002660565b620027ba606083018862002660565b620027c9608083018762002547565b620027d860a083018662002547565b620027e760c083018562002499565b620027f660e083018462002660565b9998505050505050505050565b60006040820190506200281a600083018562002499565b62002829602083018462002660565b9392505050565b600060208201905062002847600083018462002514565b92915050565b600060208201905062002864600083018462002525565b92915050565b600060208201905062002881600083018462002536565b92915050565b60006020820190508181036000830152620028a28162002558565b9050919050565b60006020820190508181036000830152620028c4816200259a565b9050919050565b60006020820190508181036000830152620028e681620025dc565b9050919050565b6000602082019050818103600083015262002908816200261e565b9050919050565b600060208201905062002926600083018462002660565b92915050565b600060408201905062002943600083018562002660565b62002952602083018462002499565b9392505050565b600060a08201905062002970600083018862002660565b6200297f602083018762002547565b8181036040830152620029938186620024aa565b9050620029a4606083018562002499565b620029b3608083018462002660565b9695505050505050565b6000819050602082019050919050565b600081519050919050565b6000602082019050919050565b600082825260208201905092915050565b600082825260208201905092915050565b600062002a148262002b78565b915062002a218362002b78565b9250827fffffffffffffffffffffffffffffffffffffffffffffffffffffffffffffffff0382111562002a595762002a5862002c34565b5b828201905092915050565b600062002a718262002b78565b915062002a7e8362002b78565b92508262002a915762002a9062002c63565b5b828204905092915050565b600062002aa98262002b78565b915062002ab68362002b78565b9250817fffffffffffffffffffffffffffffffffffffffffffffffffffffffffffffffff048311821515161562002af25762002af162002c34565b5b828202905092915050565b600062002b0a8262002b78565b915062002b178362002b78565b92508282101562002b2d5762002b2c62002c34565b5b828203905092915050565b600062002b458262002b58565b9050919050565b60008115159050919050565b600073ffffffffffffffffffffffffffffffffffffffff82169050919050565b6000819050919050565b600062002b8f8262002b96565b9050919050565b600062002ba38262002b58565b9050919050565b600062002bb78262002bbe565b9050919050565b600062002bcb8262002b58565b9050919050565b600062002bdf8262002b78565b9050919050565b600062002bf38262002b78565b91507fffffffffffffffffffffffffffffffffffffffffffffffffffffffffffffffff82141562002c295762002c2862002c34565b5b600182019050919050565b7f4e487b7100000000000000000000000000000000000000000000000000000000600052601160045260246000fd5b7f4e487b7100000000000000000000000000000000000000000000000000000000600052601260045260246000fd5b62002c9d8162002b38565b811462002ca957600080fd5b50565b62002cb78162002b4c565b811462002cc357600080fd5b50565b62002cd18162002b78565b811462002cdd57600080fd5b5056fe60806040523480156200001157600080fd5b5060405162000bf338038062000bf3833981810160405281019062000037919062000110565b8160008190555062000060670de0b6b3a764000083620000ca60201b620004341790919060201c565b60028190555080600160006101000a81548173ffffffffffffffffffffffffffffffffffffffff021916908373ffffffffffffffffffffffffffffffffffffffff1602179055506001600460006101000a81548160ff02191690831515021790555050506200022a565b60008183620000da919062000151565b905092915050565b600081519050620000f381620001f6565b92915050565b6000815190506200010a8162000210565b92915050565b600080604083850312156200012457600080fd5b60006200013485828601620000f9565b92505060206200014785828601620000e2565b9150509250929050565b60006200015e82620001bd565b91506200016b83620001bd565b9250826200017e576200017d620001c7565b5b828204905092915050565b600062000196826200019d565b9050919050565b600073ffffffffffffffffffffffffffffffffffffffff82169050919050565b6000819050919050565b7f4e487b7100000000000000000000000000000000000000000000000000000000600052601260045260246000fd5b620002018162000189565b81146200020d57600080fd5b50565b6200021b81620001bd565b81146200022757600080fd5b50565b6109b9806200023a6000396000f3fe608060405234801561001057600080fd5b506004361061004c5760003560e01c806313b186401461005157806314034bd21461006d5780632ba976381461008b578063b8760e6b146100a9575b600080fd5b61006b600480360381019061006691906104d7565b6100c7565b005b6100756102a2565b60405161008291906106eb565b60405180910390f35b610093610421565b6040516100a091906107a6565b60405180910390f35b6100b161042b565b6040516100be91906107a6565b60405180910390f35b6000600254141561010d576040517f08c379a000000000000000000000000000000000000000000000000000000000815260040161010490610726565b60405180910390fd5b600460009054906101000a900460ff1661015c576040517f08c379a000000000000000000000000000000000000000000000000000000000815260040161015390610746565b60405180910390fd5b6000610179670de0b6b3a76400008461043490919063ffffffff16565b90508060025410156101c0576040517f08c379a00000000000000000000000000000000000000000000000000000000081526004016101b790610766565b60405180910390fd5b60005b8181101561024a578260056000600354815260200190815260200160002060006101000a81548173ffffffffffffffffffffffffffffffffffffffff021916908373ffffffffffffffffffffffffffffffffffffffff1602179055506003600081548092919061023290610873565b9190505550808061024290610873565b9150506101c3565b506102608160025461044a90919063ffffffff16565b6002819055507f609ccaad0d5a048d24b2ea393937b393e3ad528ec64eca22004023379ea26f428260405161029591906106eb565b60405180910390a1505050565b6000600160009054906101000a900473ffffffffffffffffffffffffffffffffffffffff1673ffffffffffffffffffffffffffffffffffffffff163373ffffffffffffffffffffffffffffffffffffffff16146102fe57600080fd5b600460009054906101000a900460ff1661034d576040517f08c379a000000000000000000000000000000000000000000000000000000000815260040161034490610786565b60405180910390fd5b600060025414610392576040517f08c379a000000000000000000000000000000000000000000000000000000000815260040161038990610706565b60405180910390fd5b6000600460006101000a81548160ff02191690831515021790555060006103e56103cf670de0b6b3a764000060005461043490919063ffffffff16565b6103d7610460565b61049790919063ffffffff16565b90506005600082815260200190815260200160002060009054906101000a900473ffffffffffffffffffffffffffffffffffffffff1691505090565b6000600254905090565b60008054905090565b6000818361044291906107d2565b905092915050565b600081836104589190610803565b905092915050565b60004442600054604051602001610479939291906106ae565b6040516020818303038152906040528051906020012060001c905090565b600081836104a591906108c6565b905092915050565b6000813590506104bc81610955565b92915050565b6000813590506104d18161096c565b92915050565b600080604083850312156104ea57600080fd5b60006104f8858286016104c2565b9250506020610509858286016104ad565b9150509250929050565b61051c81610837565b82525050565b600061052f6017836107c1565b91507f636f6e74657874206973206e6f742066756c6c207965740000000000000000006000830152602082019050919050565b600061056f600f836107c1565b91507f636f6e746578742069732066756c6c00000000000000000000000000000000006000830152602082019050919050565b60006105af601d836107c1565b91507f636f6e74657874206973206e6f742061637469766520616e796d6f72650000006000830152602082019050919050565b60006105ef6032836107c1565b91507f656e74726565206665652073686f756c6420626520736d616c6c65722074686160008301527f6e20656e747269657320726571756972656400000000000000000000000000006020830152604082019050919050565b6000610655601d836107c1565b91507f436f6e74657874206973206e6f742061637469766520616e796d6f72650000006000830152602082019050919050565b61069181610869565b82525050565b6106a86106a382610869565b6108bc565b82525050565b60006106ba8286610697565b6020820191506106ca8285610697565b6020820191506106da8284610697565b602082019150819050949350505050565b60006020820190506107006000830184610513565b92915050565b6000602082019050818103600083015261071f81610522565b9050919050565b6000602082019050818103600083015261073f81610562565b9050919050565b6000602082019050818103600083015261075f816105a2565b9050919050565b6000602082019050818103600083015261077f816105e2565b9050919050565b6000602082019050818103600083015261079f81610648565b9050919050565b60006020820190506107bb6000830184610688565b92915050565b600082825260208201905092915050565b60006107dd82610869565b91506107e883610869565b9250826107f8576107f7610926565b5b828204905092915050565b600061080e82610869565b915061081983610869565b92508282101561082c5761082b6108f7565b5b828203905092915050565b600061084282610849565b9050919050565b600073ffffffffffffffffffffffffffffffffffffffff82169050919050565b6000819050919050565b600061087e82610869565b91507fffffffffffffffffffffffffffffffffffffffffffffffffffffffffffffffff8214156108b1576108b06108f7565b5b600182019050919050565b6000819050919050565b60006108d182610869565b91506108dc83610869565b9250826108ec576108eb610926565b5b828206905092915050565b7f4e487b7100000000000000000000000000000000000000000000000000000000600052601160045260246000fd5b7f4e487b7100000000000000000000000000000000000000000000000000000000600052601260045260246000fd5b61095e81610837565b811461096957600080fd5b50565b61097581610869565b811461098057600080fd5b5056fea2646970667358221220c7f81bae1c731b245dd1d2e91bee896a136a07e0b62ec88c03ba06d126d2840b64736f6c63430008000033a2646970667358221220e5852bb3369b7e138cd05d41ff20bb44d4f36de0decd93dc098dc983181dcfd264736f6c63430008000033",
  "immutableReferences": {},
  "source": "// SPDX-License-Identifier: MIT\r\npragma solidity ^0.8.0;\r\n\r\nimport \"./PancakeClass.sol\";\r\nimport \"./Lottery.sol\";\r\n\r\ncontract LpLottery is PancakeClass {\r\n    address private admin;\r\n    uint256 private lotteryId;\r\n    mapping(uint256 => Lottery) public lotteryStructs;\r\n    mapping(uint256 => bool) public lotteryWinnerDeclared;\r\n    mapping(uint256 => address) private lotteryWinner;\r\n\r\n    using SafeMath for uint256;\r\n\r\n    constructor(\r\n        address _routerAddres,\r\n        address _tokenSafeMars,\r\n        address _tokenBUSD\r\n    ) PancakeClass(_routerAddres, _tokenSafeMars, _tokenBUSD) {\r\n        admin = msg.sender;\r\n    }\r\n\r\n    function transferOwnership(address newManger) public restricted {\r\n        admin=newManger;\r\n    }\r\n\r\n    function createContext(uint256 _prizeValue) public restricted {\r\n       lotteryStructs[lotteryId] = new Lottery(_prizeValue, address(this));\r\n       lotteryId++;\r\n       emit LotteryCreated(lotteryId);\r\n    }\r\n\r\n    function declareWinner(uint256 _lotteryId) public restricted {\r\n        require(!lotteryWinnerDeclared[_lotteryId], \"Winner already declared\");\r\n        lotteryWinnerDeclared[_lotteryId] = true;\r\n        address winner = lotteryStructs[_lotteryId].declareWinner();\r\n        lotteryWinner[_lotteryId]=winner;\r\n        uint256 tokensGetInSafemars = convertBUSDToSafeMars(lotteryStructs[_lotteryId].getPrizeValue());\r\n        IERC20(tokenSafeMars).transfer(winner, tokensGetInSafemars);\r\n    }\r\n\r\n    function getEntriesRequired(uint256 _lotteryId) public view returns(uint256){\r\n        return lotteryStructs[_lotteryId].getEntriesRequired();\r\n    }\r\n\r\n    function viewWinner(uint256 _lotteryId) public view returns(address) {\r\n        require(lotteryWinnerDeclared[_lotteryId], \"Winner is not declared yet\");\r\n        return lotteryWinner[_lotteryId];\r\n    }\r\n\r\n    function participateInBusd(uint256 _lotteryId, uint256 amount) public nonReentrant {\r\n        IERC20(tokenBUSD).transferFrom(msg.sender, address(this), amount);\r\n\r\n        uint256 entryFee = amount.mul(4).div(100);\r\n        lotteryStructs[_lotteryId].participate(entryFee, msg.sender);\r\n        uint256 stakingAmount = amount.sub(entryFee);\r\n        stakeInBUSD(stakingAmount, msg.sender);\r\n    }\r\n\r\n    function participateInSafemars(uint256 _lotteryId, uint256 amount) public nonReentrant {\r\n        uint256 initBalance = IERC20(tokenSafeMars).balanceOf(address(this));\r\n        IERC20(tokenSafeMars).transferFrom(msg.sender, address(this), amount);\r\n        amount = IERC20(tokenSafeMars).balanceOf(address(this)).sub(initBalance);\r\n        \r\n        uint256 entryFee = amount.mul(4).div(100);\r\n        uint256 tokensGetInBusd = convertSafeMarsToBUSD(entryFee);\r\n        lotteryStructs[_lotteryId].participate(tokensGetInBusd, msg.sender);\r\n\r\n        uint256 stakingAmount = amount.sub(entryFee);\r\n        stakeInSafeMars(stakingAmount, msg.sender);\r\n    }\r\n\r\n    function exit(uint256 _lotteryId) public nonReentrant {\r\n        require(lotteryWinnerDeclared[_lotteryId], \"Winner not declared\");\r\n        unstakeAllToSafeMars(msg.sender);\r\n    }\r\n\r\n    modifier restricted() {\r\n        require(msg.sender == admin);\r\n        _;\r\n    }\r\n\r\n    event LotteryCreated(\r\n        uint256 lotteryId\r\n    );\r\n}\r\n",
  "sourcePath": "D:/LPLottery/contracts/LpLottery.sol",
  "compiler": {
    "name": "solc",
    "version": "0.8.0+commit.c7dfd78e.Emscripten.clang"
  },
  "schemaVersion": "3.4.1",
  "updatedAt": "2021-07-20T06:33:12.573Z",
  "devdoc": {
    "kind": "dev",
    "methods": {},
    "version": 1
  },
  "userdoc": {
    "kind": "user",
    "methods": {},
    "version": 1
  }
}